{
  "_format": "hh-sol-artifact-1",
  "contractName": "Twitter",
  "sourceName": "contracts/Twitter.sol",
  "abi": [
    {
      "inputs": [],
      "name": "AlreadyLiked",
      "type": "error"
    },
    {
      "inputs": [],
      "name": "EmptyIpfsHash",
      "type": "error"
    },
    {
      "inputs": [],
      "name": "InvalidTweetId",
      "type": "error"
    },
    {
      "anonymous": false,
      "inputs": [
        {
          "indexed": true,
          "internalType": "uint256",
          "name": "id",
          "type": "uint256"
        },
        {
          "indexed": true,
          "internalType": "address",
          "name": "author",
          "type": "address"
        },
        {
          "indexed": false,
          "internalType": "string",
          "name": "ipfsHash",
          "type": "string"
        },
        {
          "indexed": false,
          "internalType": "uint256",
          "name": "timestamp",
          "type": "uint256"
        }
      ],
      "name": "TweetCreated",
      "type": "event"
    },
    {
      "anonymous": false,
      "inputs": [
        {
          "indexed": true,
          "internalType": "uint256",
          "name": "id",
          "type": "uint256"
        },
        {
          "indexed": true,
          "internalType": "address",
          "name": "liker",
          "type": "address"
        },
        {
          "indexed": false,
          "internalType": "uint256",
          "name": "likes",
          "type": "uint256"
        }
      ],
      "name": "TweetLiked",
      "type": "event"
    },
    {
      "inputs": [
        {
          "internalType": "string",
          "name": "_ipfsHash",
          "type": "string"
        }
      ],
      "name": "createTweet",
      "outputs": [],
      "stateMutability": "nonpayable",
      "type": "function"
    },
    {
      "inputs": [],
      "name": "getAllTweets",
      "outputs": [
        {
          "components": [
            {
              "internalType": "uint256",
              "name": "id",
              "type": "uint256"
            },
            {
              "internalType": "address",
              "name": "author",
              "type": "address"
            },
            {
              "internalType": "string",
              "name": "ipfsHash",
              "type": "string"
            },
            {
              "internalType": "uint256",
              "name": "timestamp",
              "type": "uint256"
            },
            {
              "internalType": "uint256",
              "name": "likes",
              "type": "uint256"
            }
          ],
          "internalType": "struct Twitter.Tweet[]",
          "name": "",
          "type": "tuple[]"
        }
      ],
      "stateMutability": "view",
      "type": "function"
    },
    {
      "inputs": [
        {
          "internalType": "uint256",
          "name": "",
          "type": "uint256"
        },
        {
          "internalType": "address",
          "name": "",
          "type": "address"
        }
      ],
      "name": "hasLiked",
      "outputs": [
        {
          "internalType": "bool",
          "name": "",
          "type": "bool"
        }
      ],
      "stateMutability": "view",
      "type": "function"
    },
    {
      "inputs": [
        {
          "internalType": "uint256",
          "name": "_tweetId",
          "type": "uint256"
        }
      ],
      "name": "likeTweet",
      "outputs": [],
      "stateMutability": "nonpayable",
      "type": "function"
    },
    {
      "inputs": [],
      "name": "tweetCount",
      "outputs": [
        {
          "internalType": "uint256",
          "name": "",
          "type": "uint256"
        }
      ],
      "stateMutability": "view",
      "type": "function"
    },
    {
      "inputs": [
        {
          "internalType": "uint256",
          "name": "",
          "type": "uint256"
        }
      ],
      "name": "tweets",
      "outputs": [
        {
          "internalType": "uint256",
          "name": "id",
          "type": "uint256"
        },
        {
          "internalType": "address",
          "name": "author",
          "type": "address"
        },
        {
          "internalType": "string",
          "name": "ipfsHash",
          "type": "string"
        },
        {
          "internalType": "uint256",
          "name": "timestamp",
          "type": "uint256"
        },
        {
          "internalType": "uint256",
          "name": "likes",
          "type": "uint256"
        }
      ],
      "stateMutability": "view",
      "type": "function"
    }
  ],
  "bytecode": "0x608060405234801561001057600080fd5b5061091a806100206000396000f3fe608060405234801561001057600080fd5b50600436106100625760003560e01c80634a7782b31461006757806353256135146100835780635ffc6ceb146100985780637c9cd2bc146100ad5780638fb7092c146100c0578063e8d857b0146100fe575b600080fd5b61007060005481565b6040519081526020015b60405180910390f35b61008b610122565b60405161007a919061056b565b6100ab6100a636600461060d565b6102d3565b005b6100ab6100bb366004610626565b6103b6565b6100ee6100ce366004610698565b600260209081526000928352604080842090915290825290205460ff1681565b604051901515815260200161007a565b61011161010c36600461060d565b610463565b60405161007a9594939291906106d4565b60606000805467ffffffffffffffff81111561014057610140610712565b6040519080825280602002602001820160405280156101ac57816020015b6101996040518060a001604052806000815260200160006001600160a01b031681526020016060815260200160008152602001600081525090565b81526020019060019003908161015e5790505b50905060005b6000548110156102cd57600160006101ca8383610728565b81526020808201929092526040908101600020815160a0810183528154815260018201546001600160a01b03169381019390935260028101805491928401916102129061074f565b80601f016020809104026020016040519081016040528092919081815260200182805461023e9061074f565b801561028b5780601f106102605761010080835404028352916020019161028b565b820191906000526020600020905b81548152906001019060200180831161026e57829003601f168201915b50505050508152602001600382015481526020016004820154815250508282815181106102ba576102ba610783565b60209081029190910101526001016101b2565b50919050565b8015806102e1575060005481115b156102ff57604051634fa1fd8960e01b815260040160405180910390fd5b600081815260026020908152604080832033845290915290205460ff161561033a576040516322aba90d60e01b815260040160405180910390fd5b600081815260026020908152604080832033808552908352818420805460ff1916600190811790915585855292839052928190206004018054909201918290555183917f3a9182ad8c7c1fc3acd8b5d6e047b1693e58b9cbaf26a80079511ce787bfda11916103ab91815260200190565b60405180910390a350565b60008190036103d85760405163504d123560e01b815260040160405180910390fd5b6000805460019081018083558083526020829052604090922082815590810180546001600160a01b03191633179055600281016104168486836107ea565b504260038201819055604051339184917f16fd3c13e9d46923e0a8bce11c7b473ec508a72e6c96cd2404b29ce972afc29e9161045591899189916108ab565b60405180910390a350505050565b60016020819052600091825260409091208054918101546002820180546001600160a01b0390921692916104969061074f565b80601f01602080910402602001604051908101604052809291908181526020018280546104c29061074f565b801561050f5780601f106104e45761010080835404028352916020019161050f565b820191906000526020600020905b8154815290600101906020018083116104f257829003601f168201915b5050505050908060030154908060040154905085565b6000815180845260005b8181101561054b5760208185018101518683018201520161052f565b506000602082860101526020601f19601f83011685010191505092915050565b600060208083018184528085518083526040925060408601915060408160051b87010184880160005b838110156105ff57888303603f19018552815180518452878101516001600160a01b0316888501528681015160a0888601819052906105d582870182610525565b60608481015190880152608093840151939096019290925250509386019390860190600101610594565b509098975050505050505050565b60006020828403121561061f57600080fd5b5035919050565b6000806020838503121561063957600080fd5b823567ffffffffffffffff8082111561065157600080fd5b818501915085601f83011261066557600080fd5b81358181111561067457600080fd5b86602082850101111561068657600080fd5b60209290920196919550909350505050565b600080604083850312156106ab57600080fd5b8235915060208301356001600160a01b03811681146106c957600080fd5b809150509250929050565b8581526001600160a01b038516602082015260a0604082018190526000906106fe90830186610525565b606083019490945250608001529392505050565b634e487b7160e01b600052604160045260246000fd5b8082018082111561074957634e487b7160e01b600052601160045260246000fd5b92915050565b600181811c9082168061076357607f821691505b6020821081036102cd57634e487b7160e01b600052602260045260246000fd5b634e487b7160e01b600052603260045260246000fd5b601f8211156107e5576000816000526020600020601f850160051c810160208610156107c25750805b601f850160051c820191505b818110156107e1578281556001016107ce565b5050505b505050565b67ffffffffffffffff83111561080257610802610712565b61081683610810835461074f565b83610799565b6000601f84116001811461084a57600085156108325750838201355b600019600387901b1c1916600186901b1783556108a4565b600083815260209020601f19861690835b8281101561087b578685013582556020948501946001909201910161085b565b50868210156108985760001960f88860031b161c19848701351681555b505060018560011b0183555b5050505050565b604081528260408201528284606083013760006060848301015260006060601f19601f860116830101905082602083015294935050505056fea2646970667358221220684dc7c3e4cd7e7369473e7fed7f0ca31530d3b3478b151e75da41fe3c24198664736f6c63430008180033",
  "linkReferences": {},
  "deployedLinkReferences": {}
}